:03000000020608ED
:0C060800787FE4F6D8FD75810D02000338
:10045E007580CC7590CC12049175803375903312E3
:10046E0004917580CC7590CC120491758033759083
:10047E00331204917580CC7590CC12049175803333
:03048E0075903333
:10049100E4FDFCC3ED9FEC9E5015E4FBFA0BBB00A1
:0F04A100010AEB647B4A70F50DBD00010C80E48D
:0104B0002229
:1005EF00AD071FED60127EFAAD061EED70FA7E3E6E
:0805FF00AD061EED60EA80F874
:0106070022D0
:040277008E0A8F0B51
:10027B00900000C3E582950BE50A6480F8E5836482
:10028B008098504E75807F7590FE7FF47E0112042E
:10029B009175803F7590FC12049175801F7590F8D5
:1002AB0012049175800F7590F0120491758007758B
:1002BB0090E01204917580037590C01204917580C3
:1002CB0001759080120491E4F580F590120491A3CE
:0202DB0080A100
:0102DD0022FE
:0401C4008E0A8F0B05
:1001C800900000C3E582950BE50A6480F8E5836436
:1001D8008098400302027675807F7590FF7FF47ED9
:1001E8000112049175803F7590FF12049175801F6C
:1001F8007590FF12049175800F7590FF1204917528
:1002080080077590FF1204917580037590FF1204A2
:10021800917580017590FF120491E4F5807590FF47
:10022800120491E4F58075907F120491E4F58075CD
:10023800903F120491E4F58075901F120491E4F543
:100248008075900F120491E4F5807590071204915F
:10025800E4F580759003120491E4F580759001121D
:0E0268000491E4F580F590120491A30201CBFD
:010276002265
:0402DE008E0A8F0BEA
:1002E200900000C3E582950BE50A6480F8E583641B
:1002F2008098504E75907F7580FE7FF47E011204C7
:100302009175903F7580FC12049175901F7580F86D
:1003120012049175900F7580F01204917590077513
:1003220080E01204917590037580C012049175905B
:1003320001758080120491E4F590F580120491A376
:0203420080A198
:010344002296
:040504008E0A8F0BC1
:10050800900000C3E582950BE50A6480F8E58364F2
:100518008098503475807F7590FF7FF47E011204B7
:100528009175809F7590FF1204917580E37590FF17
:100538001204917580FC75903F1204917580FF75C7
:0805480090C0120491A380BBD6
:010550002288
:04058D008E0A8F0B38
:10059100900000C3E582950BE50A6480F8E5836469
:1005A100809850197580337590337FF47E01120461
:0D05B100917580CC7590CC120491A380D67A
:0105BE00221A
:040551008E0A8F0B74
:10055500900000C3E582950BE50A6480F8E58364A5
:10056500809850237580337590337FF47E01120493
:100575009112045E12045E758033759033120488FF
:0705850012048BA3020558CC
:01058C00224C
:040345008E0A8F0B82
:10034900900000C3E582950BE50A6480F8E58364B3
:100359008098504675803F7590FC7FF47E011204A9
:10036900917580CF7590F31204917580F37590CFD4
:100379001204917580FC75903F1204917580F37594
:1003890090CF1204917580CF7590F3120491758006
:0A0399003F7590FC120491A380A9A7
:0103A3002237
:0403A4008E0A8F0B23
:1003A800900000C3E582950BE50A6480F8E5836454
:1003B8008098504675800F7590FF7FF47E01120477
:1003C800917580F07590FF1204917580FF75900FFC
:1003D8001204917580FF7590F01204917580FF7575
:1003E800900F1204917580F07590FF12049175803A
:0A03F8000F7590FF120491A380A975
:0104020022D7
:040403008E0A8F0BC3
:10040700900000C3E582950BE50A6480F8E58364F4
:10041700809850427580AA7590AA7F2C7E0112049D
:10042700917580557580551204917580CC7590CC67
:100437007FC81E120491758033758033120491753D
:1004470080EE7590EE7F64120491758077758077E2
:06045700120491A380AD28
:01045D00227C
:0405BF008E0C8F0D02
:1005C300900000C3E582950DE50C6480F8E5836433
:1005D30080985017E4F580F5907F32FE12049175F0
:0B05E30080FF7590FF120491A380D8E8
:0105EE0022EA
:1004B1007B01E4FC0CECC39405501AE4F580F59043
:1004C100AF031205EF7580FF7590FFC374109BFF9A
:1004D1001205EF80DF0BBB11D97B01E4FC0CECC3EF
:1004E1009405501AE4F580F590C374109BFF120532
:1004F100EF7580FF7590FFAF031205EF80DF0BBB37
:0205010011D90E
:0105030022D5
:10000300E4F508F50930A5030200AF7F647E001212
:10001300049175807F7590FF7F2C7E01120491758A
:1000230080BF7590FF1204917580DF7590FF1204F5
:10003300917580EF7590FF1204917580F77590FFAD
:100043001204917580FB7590FF1204917580FD7504
:1000530090FF1204917580FE7590FF1204917590C4
:100063007F7580FF1204917590BF7580FF12049114
:100073007590DF7580FF1204917590EF7580FF1204
:1000830004917590F77580FF1204917590FB75804C
:10009300FF1204917590FD7580FF1204917590FE17
:1000A3007580FF1204917590FF7580FF20A47B7FFC
:1000B300647E001204917F017E001201C47F647E7E
:1000C300001204917F011202777F647E0012049173
:1000D3007F011202DE7F647E001204917F0112050C
:1000E300047F647E001204917F0112058D7F647E7C
:1000F300001204917F011205517F647E0012049166
:100103007F011203457F647E001204917F01120375
:10011300A47F647E001204917F051204037F647E32
:10012300001204917590FF7580FF20A37A7F647E8F
:10013300001204919000007580557590557F647E80
:10014300001204917580FF7590FF1204917580AAC7
:100153007590AA1204917580FF7590FF1204917532
:1001630080CC7590CC1204917580FF7590FF1204BA
:10017300887580FF7590FF1204917580F07590F07B
:100183001204917580FF7590FF12049175800F75AD
:10019300900F1204917580FF7590FF120491A3E5EF
:1001A30082640A4583709030A6030200087F647E50
:1001B300001204911204B17F2C7E011204910200FB
:0101C3000833
:00000001FF
